{
  "_format": "hh-sol-artifact-1",
  "contractName": "Genesis",
  "sourceName": "contracts/Genesis.sol",
  "abi": [
    {
      "inputs": [
        {
          "internalType": "uint256",
          "name": "_projectTax",
          "type": "uint256"
        }
      ],
      "stateMutability": "nonpayable",
      "type": "constructor"
    },
    {
      "anonymous": false,
      "inputs": [
        {
          "indexed": false,
          "internalType": "uint256",
          "name": "id",
          "type": "uint256"
        },
        {
          "indexed": false,
          "internalType": "string",
          "name": "actionType",
          "type": "string"
        },
        {
          "indexed": true,
          "internalType": "address",
          "name": "executor",
          "type": "address"
        },
        {
          "indexed": false,
          "internalType": "uint256",
          "name": "timestamp",
          "type": "uint256"
        }
      ],
      "name": "Action",
      "type": "event"
    },
    {
      "inputs": [
        {
          "internalType": "uint256",
          "name": "id",
          "type": "uint256"
        }
      ],
      "name": "backProject",
      "outputs": [
        {
          "internalType": "bool",
          "name": "",
          "type": "bool"
        }
      ],
      "stateMutability": "payable",
      "type": "function"
    },
    {
      "inputs": [],
      "name": "balance",
      "outputs": [
        {
          "internalType": "uint256",
          "name": "",
          "type": "uint256"
        }
      ],
      "stateMutability": "view",
      "type": "function"
    },
    {
      "inputs": [
        {
          "internalType": "uint256",
          "name": "_taxPct",
          "type": "uint256"
        }
      ],
      "name": "changeTax",
      "outputs": [],
      "stateMutability": "nonpayable",
      "type": "function"
    },
    {
      "inputs": [
        {
          "internalType": "string",
          "name": "title",
          "type": "string"
        },
        {
          "internalType": "string",
          "name": "description",
          "type": "string"
        },
        {
          "internalType": "uint256",
          "name": "cost",
          "type": "uint256"
        }
      ],
      "name": "createProject",
      "outputs": [
        {
          "internalType": "bool",
          "name": "",
          "type": "bool"
        }
      ],
      "stateMutability": "nonpayable",
      "type": "function"
    },
    {
      "inputs": [
        {
          "internalType": "uint256",
          "name": "id",
          "type": "uint256"
        }
      ],
      "name": "deleteProject",
      "outputs": [
        {
          "internalType": "bool",
          "name": "",
          "type": "bool"
        }
      ],
      "stateMutability": "nonpayable",
      "type": "function"
    },
    {
      "inputs": [
        {
          "internalType": "uint256",
          "name": "id",
          "type": "uint256"
        }
      ],
      "name": "getBackers",
      "outputs": [
        {
          "components": [
            {
              "internalType": "address",
              "name": "owner",
              "type": "address"
            },
            {
              "internalType": "uint256",
              "name": "contribution",
              "type": "uint256"
            },
            {
              "internalType": "uint256",
              "name": "timestamp",
              "type": "uint256"
            },
            {
              "internalType": "bool",
              "name": "refunded",
              "type": "bool"
            }
          ],
          "internalType": "struct Genesis.backerStruct[]",
          "name": "",
          "type": "tuple[]"
        }
      ],
      "stateMutability": "view",
      "type": "function"
    },
    {
      "inputs": [],
      "name": "getProjects",
      "outputs": [
        {
          "components": [
            {
              "internalType": "uint256",
              "name": "id",
              "type": "uint256"
            },
            {
              "internalType": "address",
              "name": "owner",
              "type": "address"
            },
            {
              "internalType": "string",
              "name": "title",
              "type": "string"
            },
            {
              "internalType": "string",
              "name": "description",
              "type": "string"
            },
            {
              "internalType": "uint256",
              "name": "cost",
              "type": "uint256"
            },
            {
              "internalType": "uint256",
              "name": "raised",
              "type": "uint256"
            },
            {
              "internalType": "uint256",
              "name": "timestamp",
              "type": "uint256"
            },
            {
              "internalType": "uint256",
              "name": "backer",
              "type": "uint256"
            },
            {
              "internalType": "enum Genesis.statusEnum",
              "name": "status",
              "type": "uint8"
            }
          ],
          "internalType": "struct Genesis.projectStruct[]",
          "name": "",
          "type": "tuple[]"
        }
      ],
      "stateMutability": "view",
      "type": "function"
    },
    {
      "inputs": [],
      "name": "owner",
      "outputs": [
        {
          "internalType": "address",
          "name": "",
          "type": "address"
        }
      ],
      "stateMutability": "view",
      "type": "function"
    },
    {
      "inputs": [
        {
          "internalType": "uint256",
          "name": "id",
          "type": "uint256"
        }
      ],
      "name": "payOutProject",
      "outputs": [
        {
          "internalType": "bool",
          "name": "",
          "type": "bool"
        }
      ],
      "stateMutability": "nonpayable",
      "type": "function"
    },
    {
      "inputs": [],
      "name": "projectCount",
      "outputs": [
        {
          "internalType": "uint256",
          "name": "",
          "type": "uint256"
        }
      ],
      "stateMutability": "view",
      "type": "function"
    },
    {
      "inputs": [
        {
          "internalType": "uint256",
          "name": "",
          "type": "uint256"
        }
      ],
      "name": "projectExist",
      "outputs": [
        {
          "internalType": "bool",
          "name": "",
          "type": "bool"
        }
      ],
      "stateMutability": "view",
      "type": "function"
    },
    {
      "inputs": [],
      "name": "projectTax",
      "outputs": [
        {
          "internalType": "uint256",
          "name": "",
          "type": "uint256"
        }
      ],
      "stateMutability": "view",
      "type": "function"
    },
    {
      "inputs": [
        {
          "internalType": "uint256",
          "name": "id",
          "type": "uint256"
        }
      ],
      "name": "requestRefund",
      "outputs": [
        {
          "internalType": "bool",
          "name": "",
          "type": "bool"
        }
      ],
      "stateMutability": "nonpayable",
      "type": "function"
    },
    {
      "inputs": [],
      "name": "stats",
      "outputs": [
        {
          "internalType": "uint256",
          "name": "totalProjects",
          "type": "uint256"
        },
        {
          "internalType": "uint256",
          "name": "totalBacking",
          "type": "uint256"
        },
        {
          "internalType": "uint256",
          "name": "totalDonations",
          "type": "uint256"
        }
      ],
      "stateMutability": "view",
      "type": "function"
    },
    {
      "inputs": [
        {
          "internalType": "uint256",
          "name": "id",
          "type": "uint256"
        },
        {
          "internalType": "string",
          "name": "title",
          "type": "string"
        },
        {
          "internalType": "string",
          "name": "description",
          "type": "string"
        }
      ],
      "name": "updateProject",
      "outputs": [
        {
          "internalType": "bool",
          "name": "",
          "type": "bool"
        }
      ],
      "stateMutability": "nonpayable",
      "type": "function"
    }
  ],
  "bytecode": "0x6080604052348015600f57600080fd5b506040516130d33803806130d38339818101604052810190602f919060b1565b336000806101000a81548173ffffffffffffffffffffffffffffffffffffffff021916908373ffffffffffffffffffffffffffffffffffffffff160217905550806001819055505060d9565b600080fd5b6000819050919050565b6091816080565b8114609b57600080fd5b50565b60008151905060ab81608a565b92915050565b60006020828403121560c45760c3607b565b5b600060d084828501609e565b91505092915050565b612feb806100e86000396000f3fe6080604052600436106100e85760003560e01c80639f39a1941161008a578063c9168b7211610059578063c9168b7214610335578063d24cd3ec14610372578063d80528ae1461039d578063dcc60128146103ca576100e8565b80639f39a19414610260578063a4b2409e14610290578063b531dcba146102cd578063b69ef8a81461030a576100e8565b80634cd0cb28116100c65780634cd0cb281461017e5780638593054b146101bb5780638c4c1347146101f85780638da5cb5b14610235576100e8565b806323c55448146100ed57806336fbad261461012a5780633e45c8af14610155575b600080fd5b3480156100f957600080fd5b50610114600480360381019061010f9190611d9b565b6103f5565b6040516101219190611e41565b60405180910390f35b34801561013657600080fd5b5061013f610835565b60405161014c9190611e6b565b60405180910390f35b34801561016157600080fd5b5061017c60048036038101906101779190611e86565b61083b565b005b34801561018a57600080fd5b506101a560048036038101906101a09190611e86565b6108d3565b6040516101b29190611e41565b60405180910390f35b3480156101c757600080fd5b506101e260048036038101906101dd9190611e86565b610ad0565b6040516101ef9190611e41565b60405180910390f35b34801561020457600080fd5b5061021f600480360381019061021a9190611eb3565b610af0565b60405161022c9190611e41565b60405180910390f35b34801561024157600080fd5b5061024a610cee565b6040516102579190611f7f565b60405180910390f35b61027a60048036038101906102759190611e86565b610d12565b6040516102879190611e41565b60405180910390f35b34801561029c57600080fd5b506102b760048036038101906102b29190611e86565b611162565b6040516102c49190611e41565b60405180910390f35b3480156102d957600080fd5b506102f460048036038101906102ef9190611e86565b6112c0565b6040516103019190611e41565b60405180910390f35b34801561031657600080fd5b5061031f611476565b60405161032c9190611e6b565b60405180910390f35b34801561034157600080fd5b5061035c60048036038101906103579190611e86565b61147c565b60405161036991906120cb565b60405180910390f35b34801561037e57600080fd5b50610387611573565b6040516103949190611e6b565b60405180910390f35b3480156103a957600080fd5b506103b2611579565b6040516103c1939291906120ed565b60405180910390f35b3480156103d657600080fd5b506103df611591565b6040516103ec91906123a8565b60405180910390f35b60008084511161043a576040517f08c379a000000000000000000000000000000000000000000000000000000000815260040161043190612427565b60405180910390fd5b600083511161047e576040517f08c379a000000000000000000000000000000000000000000000000000000000815260040161047590612493565b60405180910390fd5b600082116104c1576040517f08c379a00000000000000000000000000000000000000000000000000000000081526004016104b8906124ff565b60405180910390fd5b6104c9611b97565b60025481600001818152505033816020019073ffffffffffffffffffffffffffffffffffffffff16908173ffffffffffffffffffffffffffffffffffffffff168152505084816040018190525083816060018190525082816080018181525050428160c001818152505060078190806001815401808255809150506001900390600052602060002090600902016000909190919091506000820151816000015560208201518160010160006101000a81548173ffffffffffffffffffffffffffffffffffffffff021916908373ffffffffffffffffffffffffffffffffffffffff16021790555060408201518160020190816105c5919061272b565b5060608201518160030190816105db919061272b565b506080820151816004015560a0820151816005015560c0820151816006015560e082015181600701556101008201518160080160006101000a81548160ff021916908360048111156106305761062f6121cf565b5b021790555050506001600a6000600254815260200190815260200160002060006101000a81548160ff021916908315150217905550600860003373ffffffffffffffffffffffffffffffffffffffff1673ffffffffffffffffffffffffffffffffffffffff1681526020019081526020016000208190806001815401808255809150506001900390600052602060002090600902016000909190919091506000820151816000015560208201518160010160006101000a81548173ffffffffffffffffffffffffffffffffffffffff021916908373ffffffffffffffffffffffffffffffffffffffff1602179055506040820151816002019081610734919061272b565b50606082015181600301908161074a919061272b565b506080820151816004015560a0820151816005015560c0820151816006015560e082015181600701556101008201518160080160006101000a81548160ff0219169083600481111561079f5761079e6121cf565b5b021790555050506001600460000160008282546107bc919061282c565b925050819055503373ffffffffffffffffffffffffffffffffffffffff167faee8e5d3bbb2f71a951b5632cee20f7ac487b9f8ab4f66a236f7694b13af7c6a6002600081548092919061080e90612860565b91905055426040516108219291906128f4565b60405180910390a260019150509392505050565b60025481565b60008054906101000a900473ffffffffffffffffffffffffffffffffffffffff1673ffffffffffffffffffffffffffffffffffffffff163373ffffffffffffffffffffffffffffffffffffffff16146108c9576040517f08c379a00000000000000000000000000000000000000000000000000000000081526004016108c09061297c565b60405180910390fd5b8060018190555050565b60008060048111156108e8576108e76121cf565b5b600783815481106108fc576108fb61299c565b5b906000526020600020906009020160080160009054906101000a900460ff16600481111561092d5761092c6121cf565b5b1461096d576040517f08c379a000000000000000000000000000000000000000000000000000000000815260040161096490612a17565b60405180910390fd5b600782815481106109815761098061299c565b5b906000526020600020906009020160010160009054906101000a900473ffffffffffffffffffffffffffffffffffffffff1673ffffffffffffffffffffffffffffffffffffffff163373ffffffffffffffffffffffffffffffffffffffff1614610a20576040517f08c379a0000000000000000000000000000000000000000000000000000000008152600401610a1790612a83565b60405180910390fd5b600360078381548110610a3657610a3561299c565b5b906000526020600020906009020160080160006101000a81548160ff02191690836004811115610a6957610a686121cf565b5b0217905550610a77826117d8565b3373ffffffffffffffffffffffffffffffffffffffff167faee8e5d3bbb2f71a951b5632cee20f7ac487b9f8ab4f66a236f7694b13af7c6a8342604051610abf929190612aef565b60405180910390a260019050919050565b600a6020528060005260406000206000915054906101000a900460ff1681565b600060078481548110610b0657610b0561299c565b5b906000526020600020906009020160010160009054906101000a900473ffffffffffffffffffffffffffffffffffffffff1673ffffffffffffffffffffffffffffffffffffffff163373ffffffffffffffffffffffffffffffffffffffff1614610ba5576040517f08c379a0000000000000000000000000000000000000000000000000000000008152600401610b9c90612a83565b60405180910390fd5b6000835111610be9576040517f08c379a0000000000000000000000000000000000000000000000000000000008152600401610be090612427565b60405180910390fd5b6000825111610c2d576040517f08c379a0000000000000000000000000000000000000000000000000000000008152600401610c2490612493565b60405180910390fd5b8260078581548110610c4257610c4161299c565b5b90600052602060002090600902016002019081610c5f919061272b565b508160078581548110610c7557610c7461299c565b5b90600052602060002090600902016003019081610c92919061272b565b503373ffffffffffffffffffffffffffffffffffffffff167faee8e5d3bbb2f71a951b5632cee20f7ac487b9f8ab4f66a236f7694b13af7c6a8542604051610cdb929190612b77565b60405180910390a2600190509392505050565b60008054906101000a900473ffffffffffffffffffffffffffffffffffffffff1681565b600060078281548110610d2857610d2761299c565b5b9060005260206000209060090201600401543414610d7b576040517f08c379a0000000000000000000000000000000000000000000000000000000008152600401610d7290612bff565b60405180910390fd5b600a600083815260200190815260200160002060009054906101000a900460ff16610ddb576040517f08c379a0000000000000000000000000000000000000000000000000000000008152600401610dd290612c6b565b60405180910390fd5b60006004811115610def57610dee6121cf565b5b60078381548110610e0357610e0261299c565b5b906000526020600020906009020160080160009054906101000a900460ff166004811115610e3457610e336121cf565b5b14610e74576040517f08c379a0000000000000000000000000000000000000000000000000000000008152600401610e6b90612a17565b60405180910390fd5b600160046001016000828254610e8a919061282c565b925050819055503460046002016000828254610ea6919061282c565b925050819055503460078381548110610ec257610ec161299c565b5b90600052602060002090600902016005016000828254610ee2919061282c565b92505081905550600160078381548110610eff57610efe61299c565b5b90600052602060002090600902016007016000828254610f1f919061282c565b925050819055506009600083815260200190815260200160002060405180608001604052803373ffffffffffffffffffffffffffffffffffffffff16815260200134815260200142815260200160001515815250908060018154018082558091505060019003906000526020600020906004020160009091909190915060008201518160000160006101000a81548173ffffffffffffffffffffffffffffffffffffffff021916908373ffffffffffffffffffffffffffffffffffffffff160217905550602082015181600101556040820151816002015560608201518160030160006101000a81548160ff02191690831515021790555050503373ffffffffffffffffffffffffffffffffffffffff167faee8e5d3bbb2f71a951b5632cee20f7ac487b9f8ab4f66a236f7694b13af7c6a8342604051611061929190612cd7565b60405180910390a26007828154811061107d5761107c61299c565b5b906000526020600020906009020160040154600783815481106110a3576110a261299c565b5b90600052602060002090600902016005015403611158576001600783815481106110d0576110cf61299c565b5b906000526020600020906009020160080160006101000a81548160ff02191690836004811115611103576111026121cf565b5b02179055506007828154811061111c5761111b61299c565b5b9060005260206000209060090201600501546003600082825461113f919061282c565b9250508190555061114f8261196f565b6001905061115d565b600190505b919050565b600060026004811115611178576111776121cf565b5b6007838154811061118c5761118b61299c565b5b906000526020600020906009020160080160009054906101000a900460ff1660048111156111bd576111bc6121cf565b5b1415806112215750600360048111156111d9576111d86121cf565b5b600783815481106111ed576111ec61299c565b5b906000526020600020906009020160080160009054906101000a900460ff16600481111561121e5761121d6121cf565b5b14155b611260576040517f08c379a000000000000000000000000000000000000000000000000000000000815260040161125790612d85565b60405180910390fd5b6002600783815481106112765761127561299c565b5b906000526020600020906009020160080160006101000a81548160ff021916908360048111156112a9576112a86121cf565b5b02179055506112b7826117d8565b60019050919050565b6000600160048111156112d6576112d56121cf565b5b600783815481106112ea576112e961299c565b5b906000526020600020906009020160080160009054906101000a900460ff16600481111561131b5761131a6121cf565b5b1461135b576040517f08c379a000000000000000000000000000000000000000000000000000000000815260040161135290612df1565b60405180910390fd5b6007828154811061136f5761136e61299c565b5b906000526020600020906009020160010160009054906101000a900473ffffffffffffffffffffffffffffffffffffffff1673ffffffffffffffffffffffffffffffffffffffff163373ffffffffffffffffffffffffffffffffffffffff161480611425575060008054906101000a900473ffffffffffffffffffffffffffffffffffffffff1673ffffffffffffffffffffffffffffffffffffffff163373ffffffffffffffffffffffffffffffffffffffff16145b611464576040517f08c379a000000000000000000000000000000000000000000000000000000000815260040161145b90612a83565b60405180910390fd5b61146d8261196f565b60019050919050565b60035481565b606060096000838152602001908152602001600020805480602002602001604051908101604052809291908181526020016000905b8282101561156857838290600052602060002090600402016040518060800160405290816000820160009054906101000a900473ffffffffffffffffffffffffffffffffffffffff1673ffffffffffffffffffffffffffffffffffffffff1673ffffffffffffffffffffffffffffffffffffffff16815260200160018201548152602001600282015481526020016003820160009054906101000a900460ff161515151581525050815260200190600101906114b1565b505050509050919050565b60015481565b60048060000154908060010154908060020154905083565b60606007805480602002602001604051908101604052809291908181526020016000905b828210156117cf578382906000526020600020906009020160405180610120016040529081600082015481526020016001820160009054906101000a900473ffffffffffffffffffffffffffffffffffffffff1673ffffffffffffffffffffffffffffffffffffffff1673ffffffffffffffffffffffffffffffffffffffff1681526020016002820180546116499061254e565b80601f01602080910402602001604051908101604052809291908181526020018280546116759061254e565b80156116c25780601f10611697576101008083540402835291602001916116c2565b820191906000526020600020905b8154815290600101906020018083116116a557829003601f168201915b505050505081526020016003820180546116db9061254e565b80601f01602080910402602001604051908101604052809291908181526020018280546117079061254e565b80156117545780601f1061172957610100808354040283529160200191611754565b820191906000526020600020905b81548152906001019060200180831161173757829003601f168201915b50505050508152602001600482015481526020016005820154815260200160068201548152602001600782015481526020016008820160009054906101000a900460ff1660048111156117aa576117a96121cf565b5b60048111156117bc576117bb6121cf565b5b81525050815260200190600101906115b5565b50505050905090565b60005b600960008381526020019081526020016000208054905081101561196b5760006009600084815260200190815260200160002082815481106118205761181f61299c565b5b906000526020600020906004020160000160009054906101000a900473ffffffffffffffffffffffffffffffffffffffff169050600060096000858152602001908152602001600020838154811061187b5761187a61299c565b5b906000526020600020906004020160010154905060016009600086815260200190815260200160002084815481106118b6576118b561299c565b5b906000526020600020906004020160030160006101000a81548160ff021916908315150217905550426009600086815260200190815260200160002084815481106119045761190361299c565b5b9060005260206000209060040201600201819055506119238282611b1c565b6001600460010160008282546119399190612e11565b9250508190555080600460020160008282546119559190612e11565b92505081905550505080806001019150506117db565b5050565b6000600782815481106119855761198461299c565b5b906000526020600020906009020160050154905060006064600154836119ab9190612e45565b6119b59190612eb6565b90506004600784815481106119cd576119cc61299c565b5b906000526020600020906009020160080160006101000a81548160ff02191690836004811115611a00576119ff6121cf565b5b0217905550611a5f60078481548110611a1c57611a1b61299c565b5b906000526020600020906009020160010160009054906101000a900473ffffffffffffffffffffffffffffffffffffffff168284611a5a9190612e11565b611b1c565b611a8960008054906101000a900473ffffffffffffffffffffffffffffffffffffffff1682611b1c565b60078381548110611a9d57611a9c61299c565b5b90600052602060002090600902016005015460036000828254611ac09190612e11565b925050819055503373ffffffffffffffffffffffffffffffffffffffff167faee8e5d3bbb2f71a951b5632cee20f7ac487b9f8ab4f66a236f7694b13af7c6a8442604051611b0f929190612f33565b60405180910390a2505050565b60008273ffffffffffffffffffffffffffffffffffffffff1682604051611b4290612fa0565b60006040518083038185875af1925050503d8060008114611b7f576040519150601f19603f3d011682016040523d82523d6000602084013e611b84565b606091505b5050905080611b9257600080fd5b505050565b60405180610120016040528060008152602001600073ffffffffffffffffffffffffffffffffffffffff16815260200160608152602001606081526020016000815260200160008152602001600081526020016000815260200160006004811115611c0557611c046121cf565b5b81525090565b6000604051905090565b600080fd5b600080fd5b600080fd5b600080fd5b6000601f19601f8301169050919050565b7f4e487b7100000000000000000000000000000000000000000000000000000000600052604160045260246000fd5b611c7282611c29565b810181811067ffffffffffffffff82111715611c9157611c90611c3a565b5b80604052505050565b6000611ca4611c0b565b9050611cb08282611c69565b919050565b600067ffffffffffffffff821115611cd057611ccf611c3a565b5b611cd982611c29565b9050602081019050919050565b82818337600083830152505050565b6000611d08611d0384611cb5565b611c9a565b905082815260208101848484011115611d2457611d23611c24565b5b611d2f848285611ce6565b509392505050565b600082601f830112611d4c57611d4b611c1f565b5b8135611d5c848260208601611cf5565b91505092915050565b6000819050919050565b611d7881611d65565b8114611d8357600080fd5b50565b600081359050611d9581611d6f565b92915050565b600080600060608486031215611db457611db3611c15565b5b600084013567ffffffffffffffff811115611dd257611dd1611c1a565b5b611dde86828701611d37565b935050602084013567ffffffffffffffff811115611dff57611dfe611c1a565b5b611e0b86828701611d37565b9250506040611e1c86828701611d86565b9150509250925092565b60008115159050919050565b611e3b81611e26565b82525050565b6000602082019050611e566000830184611e32565b92915050565b611e6581611d65565b82525050565b6000602082019050611e806000830184611e5c565b92915050565b600060208284031215611e9c57611e9b611c15565b5b6000611eaa84828501611d86565b91505092915050565b600080600060608486031215611ecc57611ecb611c15565b5b6000611eda86828701611d86565b935050602084013567ffffffffffffffff811115611efb57611efa611c1a565b5b611f0786828701611d37565b925050604084013567ffffffffffffffff811115611f2857611f27611c1a565b5b611f3486828701611d37565b9150509250925092565b600073ffffffffffffffffffffffffffffffffffffffff82169050919050565b6000611f6982611f3e565b9050919050565b611f7981611f5e565b82525050565b6000602082019050611f946000830184611f70565b92915050565b600081519050919050565b600082825260208201905092915050565b6000819050602082019050919050565b611fcf81611f5e565b82525050565b611fde81611d65565b82525050565b611fed81611e26565b82525050565b6080820160008201516120096000850182611fc6565b50602082015161201c6020850182611fd5565b50604082015161202f6040850182611fd5565b5060608201516120426060850182611fe4565b50505050565b60006120548383611ff3565b60808301905092915050565b6000602082019050919050565b600061207882611f9a565b6120828185611fa5565b935061208d83611fb6565b8060005b838110156120be5781516120a58882612048565b97506120b083612060565b925050600181019050612091565b5085935050505092915050565b600060208201905081810360008301526120e5818461206d565b905092915050565b60006060820190506121026000830186611e5c565b61210f6020830185611e5c565b61211c6040830184611e5c565b949350505050565b600081519050919050565b600082825260208201905092915050565b6000819050602082019050919050565b600081519050919050565b600082825260208201905092915050565b60005b8381101561218a57808201518184015260208101905061216f565b60008484015250505050565b60006121a182612150565b6121ab818561215b565b93506121bb81856020860161216c565b6121c481611c29565b840191505092915050565b7f4e487b7100000000000000000000000000000000000000000000000000000000600052602160045260246000fd5b6005811061220f5761220e6121cf565b5b50565b6000819050612220826121fe565b919050565b600061223082612212565b9050919050565b61224081612225565b82525050565b60006101208301600083015161225f6000860182611fd5565b5060208301516122726020860182611fc6565b506040830151848203604086015261228a8282612196565b915050606083015184820360608601526122a48282612196565b91505060808301516122b96080860182611fd5565b5060a08301516122cc60a0860182611fd5565b5060c08301516122df60c0860182611fd5565b5060e08301516122f260e0860182611fd5565b50610100830151612307610100860182612237565b508091505092915050565b600061231e8383612246565b905092915050565b6000602082019050919050565b600061233e82612124565b612348818561212f565b93508360208202850161235a85612140565b8060005b8581101561239657848403895281516123778582612312565b945061238283612326565b925060208a0199505060018101905061235e565b50829750879550505050505092915050565b600060208201905081810360008301526123c28184612333565b905092915050565b600082825260208201905092915050565b7f5469746c652063616e6e6f7420626520656d7074790000000000000000000000600082015250565b60006124116015836123ca565b915061241c826123db565b602082019050919050565b6000602082019050818103600083015261244081612404565b9050919050565b7f4465736372697074696f6e2063616e6e6f7420626520656d7074790000000000600082015250565b600061247d601b836123ca565b915061248882612447565b602082019050919050565b600060208201905081810360008301526124ac81612470565b9050919050565b7f436f73742063616e6e6f74206265207a65726f00000000000000000000000000600082015250565b60006124e96013836123ca565b91506124f4826124b3565b602082019050919050565b60006020820190508181036000830152612518816124dc565b9050919050565b7f4e487b7100000000000000000000000000000000000000000000000000000000600052602260045260246000fd5b6000600282049050600182168061256657607f821691505b6020821081036125795761257861251f565b5b50919050565b60008190508160005260206000209050919050565b60006020601f8301049050919050565b600082821b905092915050565b6000600883026125e17fffffffffffffffffffffffffffffffffffffffffffffffffffffffffffffffff826125a4565b6125eb86836125a4565b95508019841693508086168417925050509392505050565b6000819050919050565b600061262861262361261e84611d65565b612603565b611d65565b9050919050565b6000819050919050565b6126428361260d565b61265661264e8261262f565b8484546125b1565b825550505050565b600090565b61266b61265e565b612676818484612639565b505050565b5b8181101561269a5761268f600082612663565b60018101905061267c565b5050565b601f8211156126df576126b08161257f565b6126b984612594565b810160208510156126c8578190505b6126dc6126d485612594565b83018261267b565b50505b505050565b600082821c905092915050565b6000612702600019846008026126e4565b1980831691505092915050565b600061271b83836126f1565b9150826002028217905092915050565b61273482612150565b67ffffffffffffffff81111561274d5761274c611c3a565b5b612757825461254e565b61276282828561269e565b600060209050601f8311600181146127955760008415612783578287015190505b61278d858261270f565b8655506127f5565b601f1984166127a38661257f565b60005b828110156127cb578489015182556001820191506020850194506020810190506127a6565b868310156127e857848901516127e4601f8916826126f1565b8355505b6001600288020188555050505b505050505050565b7f4e487b7100000000000000000000000000000000000000000000000000000000600052601160045260246000fd5b600061283782611d65565b915061284283611d65565b925082820190508082111561285a576128596127fd565b5b92915050565b600061286b82611d65565b91507fffffffffffffffffffffffffffffffffffffffffffffffffffffffffffffffff820361289d5761289c6127fd565b5b600182019050919050565b7f50524f4a45435420435245415445440000000000000000000000000000000000600082015250565b60006128de600f836123ca565b91506128e9826128a8565b602082019050919050565b60006060820190506129096000830185611e5c565b818103602083015261291a816128d1565b90506129296040830184611e5c565b9392505050565b7f4f776e6572207265736572766564206f6e6c7900000000000000000000000000600082015250565b60006129666013836123ca565b915061297182612930565b602082019050919050565b6000602082019050818103600083015261299581612959565b9050919050565b7f4e487b7100000000000000000000000000000000000000000000000000000000600052603260045260246000fd5b7f50726f6a656374206e6f206c6f6e676572206f70656e65640000000000000000600082015250565b6000612a016018836123ca565b9150612a0c826129cb565b602082019050919050565b60006020820190508181036000830152612a30816129f4565b9050919050565b7f556e617574686f72697a656420456e7469747900000000000000000000000000600082015250565b6000612a6d6013836123ca565b9150612a7882612a37565b602082019050919050565b60006020820190508181036000830152612a9c81612a60565b9050919050565b7f50524f4a4543542044454c455445440000000000000000000000000000000000600082015250565b6000612ad9600f836123ca565b9150612ae482612aa3565b602082019050919050565b6000606082019050612b046000830185611e5c565b8181036020830152612b1581612acc565b9050612b246040830184611e5c565b9392505050565b7f50524f4a45435420555044415445440000000000000000000000000000000000600082015250565b6000612b61600f836123ca565b9150612b6c82612b2b565b602082019050919050565b6000606082019050612b8c6000830185611e5c565b8181036020830152612b9d81612b54565b9050612bac6040830184611e5c565b9392505050565b7f4574686572206d75737420626520657175616c20746f20636f73740000000000600082015250565b6000612be9601b836123ca565b9150612bf482612bb3565b602082019050919050565b60006020820190508181036000830152612c1881612bdc565b9050919050565b7f50726f6a656374206e6f7420666f756e64000000000000000000000000000000600082015250565b6000612c556011836123ca565b9150612c6082612c1f565b602082019050919050565b60006020820190508181036000830152612c8481612c48565b9050919050565b7f50524f4a454354204241434b4544000000000000000000000000000000000000600082015250565b6000612cc1600e836123ca565b9150612ccc82612c8b565b602082019050919050565b6000606082019050612cec6000830185611e5c565b8181036020830152612cfd81612cb4565b9050612d0c6040830184611e5c565b9392505050565b7f50726f6a656374206e6f74206d61726b656420617320726576657274206f722060008201527f64656c6574650000000000000000000000000000000000000000000000000000602082015250565b6000612d6f6026836123ca565b9150612d7a82612d13565b604082019050919050565b60006020820190508181036000830152612d9e81612d62565b9050919050565b7f50726f6a656374206e6f7420415050524f564544000000000000000000000000600082015250565b6000612ddb6014836123ca565b9150612de682612da5565b602082019050919050565b60006020820190508181036000830152612e0a81612dce565b9050919050565b6000612e1c82611d65565b9150612e2783611d65565b9250828203905081811115612e3f57612e3e6127fd565b5b92915050565b6000612e5082611d65565b9150612e5b83611d65565b9250828202612e6981611d65565b91508282048414831517612e8057612e7f6127fd565b5b5092915050565b7f4e487b7100000000000000000000000000000000000000000000000000000000600052601260045260246000fd5b6000612ec182611d65565b9150612ecc83611d65565b925082612edc57612edb612e87565b5b828204905092915050565b7f50524f4a4543542050414944204f555400000000000000000000000000000000600082015250565b6000612f1d6010836123ca565b9150612f2882612ee7565b602082019050919050565b6000606082019050612f486000830185611e5c565b8181036020830152612f5981612f10565b9050612f686040830184611e5c565b9392505050565b600081905092915050565b50565b6000612f8a600083612f6f565b9150612f9582612f7a565b600082019050919050565b6000612fab82612f7d565b915081905091905056fea26469706673582212209397623c9e2fa4e02cab38bd22e09b343b85019293d681889e843db69622c29e64736f6c634300081c0033",
  "linkReferences": {},
  "deployedLinkReferences": {}
}