{
  "_format": "hh-sol-artifact-1",
  "contractName": "Genesis",
  "sourceName": "contracts/Genesis.sol",
  "abi": [
    {
      "inputs": [],
      "stateMutability": "nonpayable",
      "type": "constructor"
    },
    {
      "anonymous": false,
      "inputs": [
        {
          "indexed": false,
          "internalType": "uint256",
          "name": "id",
          "type": "uint256"
        },
        {
          "indexed": false,
          "internalType": "string",
          "name": "actionType",
          "type": "string"
        },
        {
          "indexed": true,
          "internalType": "address",
          "name": "executor",
          "type": "address"
        },
        {
          "indexed": false,
          "internalType": "uint256",
          "name": "timestamp",
          "type": "uint256"
        }
      ],
      "name": "Action",
      "type": "event"
    },
    {
      "inputs": [
        {
          "internalType": "uint256",
          "name": "id",
          "type": "uint256"
        },
        {
          "internalType": "string",
          "name": "investorName",
          "type": "string"
        },
        {
          "internalType": "uint256",
          "name": "equity",
          "type": "uint256"
        }
      ],
      "name": "backProject",
      "outputs": [
        {
          "internalType": "bool",
          "name": "",
          "type": "bool"
        }
      ],
      "stateMutability": "payable",
      "type": "function"
    },
    {
      "inputs": [
        {
          "internalType": "string",
          "name": "title",
          "type": "string"
        },
        {
          "internalType": "string",
          "name": "description",
          "type": "string"
        },
        {
          "internalType": "string",
          "name": "category",
          "type": "string"
        },
        {
          "internalType": "string",
          "name": "ownerName",
          "type": "string"
        },
        {
          "internalType": "string",
          "name": "slug",
          "type": "string"
        },
        {
          "internalType": "uint256",
          "name": "equity",
          "type": "uint256"
        },
        {
          "internalType": "uint256",
          "name": "cost",
          "type": "uint256"
        }
      ],
      "name": "createProject",
      "outputs": [
        {
          "internalType": "bool",
          "name": "",
          "type": "bool"
        }
      ],
      "stateMutability": "nonpayable",
      "type": "function"
    },
    {
      "inputs": [
        {
          "internalType": "uint256",
          "name": "id",
          "type": "uint256"
        }
      ],
      "name": "getProjectById",
      "outputs": [
        {
          "components": [
            {
              "internalType": "uint256",
              "name": "id",
              "type": "uint256"
            },
            {
              "internalType": "address",
              "name": "owner",
              "type": "address"
            },
            {
              "internalType": "string",
              "name": "title",
              "type": "string"
            },
            {
              "internalType": "string",
              "name": "description",
              "type": "string"
            },
            {
              "internalType": "string",
              "name": "category",
              "type": "string"
            },
            {
              "internalType": "string",
              "name": "slug",
              "type": "string"
            },
            {
              "internalType": "uint256",
              "name": "cost",
              "type": "uint256"
            },
            {
              "internalType": "uint256",
              "name": "raised",
              "type": "uint256"
            },
            {
              "internalType": "uint256",
              "name": "timestamp",
              "type": "uint256"
            },
            {
              "internalType": "address",
              "name": "investorAddress",
              "type": "address"
            },
            {
              "internalType": "string",
              "name": "ownerName",
              "type": "string"
            },
            {
              "internalType": "string",
              "name": "investorName",
              "type": "string"
            },
            {
              "internalType": "uint256",
              "name": "equity",
              "type": "uint256"
            },
            {
              "internalType": "enum Genesis.ProjectStatus",
              "name": "status",
              "type": "uint8"
            }
          ],
          "internalType": "struct Genesis.projectStruct",
          "name": "",
          "type": "tuple"
        }
      ],
      "stateMutability": "view",
      "type": "function"
    },
    {
      "inputs": [
        {
          "internalType": "string",
          "name": "_slug",
          "type": "string"
        }
      ],
      "name": "getProjectBySlug",
      "outputs": [
        {
          "components": [
            {
              "internalType": "uint256",
              "name": "id",
              "type": "uint256"
            },
            {
              "internalType": "address",
              "name": "owner",
              "type": "address"
            },
            {
              "internalType": "string",
              "name": "title",
              "type": "string"
            },
            {
              "internalType": "string",
              "name": "description",
              "type": "string"
            },
            {
              "internalType": "string",
              "name": "category",
              "type": "string"
            },
            {
              "internalType": "string",
              "name": "slug",
              "type": "string"
            },
            {
              "internalType": "uint256",
              "name": "cost",
              "type": "uint256"
            },
            {
              "internalType": "uint256",
              "name": "raised",
              "type": "uint256"
            },
            {
              "internalType": "uint256",
              "name": "timestamp",
              "type": "uint256"
            },
            {
              "internalType": "address",
              "name": "investorAddress",
              "type": "address"
            },
            {
              "internalType": "string",
              "name": "ownerName",
              "type": "string"
            },
            {
              "internalType": "string",
              "name": "investorName",
              "type": "string"
            },
            {
              "internalType": "uint256",
              "name": "equity",
              "type": "uint256"
            },
            {
              "internalType": "enum Genesis.ProjectStatus",
              "name": "status",
              "type": "uint8"
            }
          ],
          "internalType": "struct Genesis.projectStruct",
          "name": "",
          "type": "tuple"
        }
      ],
      "stateMutability": "view",
      "type": "function"
    },
    {
      "inputs": [],
      "name": "getProjects",
      "outputs": [
        {
          "components": [
            {
              "internalType": "uint256",
              "name": "id",
              "type": "uint256"
            },
            {
              "internalType": "address",
              "name": "owner",
              "type": "address"
            },
            {
              "internalType": "string",
              "name": "title",
              "type": "string"
            },
            {
              "internalType": "string",
              "name": "description",
              "type": "string"
            },
            {
              "internalType": "string",
              "name": "category",
              "type": "string"
            },
            {
              "internalType": "string",
              "name": "slug",
              "type": "string"
            },
            {
              "internalType": "uint256",
              "name": "cost",
              "type": "uint256"
            },
            {
              "internalType": "uint256",
              "name": "raised",
              "type": "uint256"
            },
            {
              "internalType": "uint256",
              "name": "timestamp",
              "type": "uint256"
            },
            {
              "internalType": "address",
              "name": "investorAddress",
              "type": "address"
            },
            {
              "internalType": "string",
              "name": "ownerName",
              "type": "string"
            },
            {
              "internalType": "string",
              "name": "investorName",
              "type": "string"
            },
            {
              "internalType": "uint256",
              "name": "equity",
              "type": "uint256"
            },
            {
              "internalType": "enum Genesis.ProjectStatus",
              "name": "status",
              "type": "uint8"
            }
          ],
          "internalType": "struct Genesis.projectStruct[]",
          "name": "",
          "type": "tuple[]"
        }
      ],
      "stateMutability": "view",
      "type": "function"
    },
    {
      "inputs": [],
      "name": "getProjectsByAddress",
      "outputs": [
        {
          "components": [
            {
              "internalType": "uint256",
              "name": "id",
              "type": "uint256"
            },
            {
              "internalType": "address",
              "name": "owner",
              "type": "address"
            },
            {
              "internalType": "string",
              "name": "title",
              "type": "string"
            },
            {
              "internalType": "string",
              "name": "description",
              "type": "string"
            },
            {
              "internalType": "string",
              "name": "category",
              "type": "string"
            },
            {
              "internalType": "string",
              "name": "slug",
              "type": "string"
            },
            {
              "internalType": "uint256",
              "name": "cost",
              "type": "uint256"
            },
            {
              "internalType": "uint256",
              "name": "raised",
              "type": "uint256"
            },
            {
              "internalType": "uint256",
              "name": "timestamp",
              "type": "uint256"
            },
            {
              "internalType": "address",
              "name": "investorAddress",
              "type": "address"
            },
            {
              "internalType": "string",
              "name": "ownerName",
              "type": "string"
            },
            {
              "internalType": "string",
              "name": "investorName",
              "type": "string"
            },
            {
              "internalType": "uint256",
              "name": "equity",
              "type": "uint256"
            },
            {
              "internalType": "enum Genesis.ProjectStatus",
              "name": "status",
              "type": "uint8"
            }
          ],
          "internalType": "struct Genesis.projectStruct[]",
          "name": "",
          "type": "tuple[]"
        }
      ],
      "stateMutability": "view",
      "type": "function"
    },
    {
      "inputs": [],
      "name": "owner",
      "outputs": [
        {
          "internalType": "address",
          "name": "",
          "type": "address"
        }
      ],
      "stateMutability": "view",
      "type": "function"
    },
    {
      "inputs": [],
      "name": "projectCount",
      "outputs": [
        {
          "internalType": "uint256",
          "name": "",
          "type": "uint256"
        }
      ],
      "stateMutability": "view",
      "type": "function"
    },
    {
      "inputs": [
        {
          "internalType": "uint256",
          "name": "",
          "type": "uint256"
        }
      ],
      "name": "projectExist",
      "outputs": [
        {
          "internalType": "bool",
          "name": "",
          "type": "bool"
        }
      ],
      "stateMutability": "view",
      "type": "function"
    },
    {
      "inputs": [],
      "name": "stats",
      "outputs": [
        {
          "internalType": "uint256",
          "name": "totalProjects",
          "type": "uint256"
        },
        {
          "internalType": "uint256",
          "name": "totalInvestors",
          "type": "uint256"
        },
        {
          "internalType": "uint256",
          "name": "totalInvestment",
          "type": "uint256"
        }
      ],
      "stateMutability": "view",
      "type": "function"
    }
  ],
  "bytecode": "0x6080604052348015600f57600080fd5b50336000806101000a81548173ffffffffffffffffffffffffffffffffffffffff021916908373ffffffffffffffffffffffffffffffffffffffff16021790555061422a8061005f6000396000f3fe6080604052600436106100915760003560e01c8063a7ee42de11610059578063a7ee42de14610184578063b393434d146101c1578063bee5cdca146101fe578063d80528ae1461023b578063dcc601281461026857610091565b806336fbad26146100965780635231de83146100c157806352b28063146100ec5780638593054b1461011c5780638da5cb5b14610159575b600080fd5b3480156100a257600080fd5b506100ab610293565b6040516100b89190612c19565b60405180910390f35b3480156100cd57600080fd5b506100d6610299565b6040516100e39190612f9e565b60405180910390f35b61010660048036038101906101019190613135565b6107bb565b60405161011391906131bf565b60405180910390f35b34801561012857600080fd5b50610143600480360381019061013e91906131da565b610ffa565b60405161015091906131bf565b60405180910390f35b34801561016557600080fd5b5061016e61101a565b60405161017b9190613216565b60405180910390f35b34801561019057600080fd5b506101ab60048036038101906101a69190613231565b61103e565b6040516101b891906131bf565b60405180910390f35b3480156101cd57600080fd5b506101e860048036038101906101e3919061335f565b61188c565b6040516101f591906134f9565b60405180910390f35b34801561020a57600080fd5b50610225600480360381019061022091906131da565b611d4a565b60405161023291906134f9565b60405180910390f35b34801561024757600080fd5b506102506122c0565b60405161025f9392919061351b565b60405180910390f35b34801561027457600080fd5b5061027d6122d8565b60405161028a9190612f9e565b60405180910390f35b60015481565b6060600660003373ffffffffffffffffffffffffffffffffffffffff1673ffffffffffffffffffffffffffffffffffffffff168152602001908152602001600020805480602002602001604051908101604052809291908181526020016000905b828210156107b257838290600052602060002090600e0201604051806101c0016040529081600082015481526020016001820160009054906101000a900473ffffffffffffffffffffffffffffffffffffffff1673ffffffffffffffffffffffffffffffffffffffff1673ffffffffffffffffffffffffffffffffffffffff16815260200160028201805461038e90613581565b80601f01602080910402602001604051908101604052809291908181526020018280546103ba90613581565b80156104075780601f106103dc57610100808354040283529160200191610407565b820191906000526020600020905b8154815290600101906020018083116103ea57829003601f168201915b5050505050815260200160038201805461042090613581565b80601f016020809104026020016040519081016040528092919081815260200182805461044c90613581565b80156104995780601f1061046e57610100808354040283529160200191610499565b820191906000526020600020905b81548152906001019060200180831161047c57829003601f168201915b505050505081526020016004820180546104b290613581565b80601f01602080910402602001604051908101604052809291908181526020018280546104de90613581565b801561052b5780601f106105005761010080835404028352916020019161052b565b820191906000526020600020905b81548152906001019060200180831161050e57829003601f168201915b5050505050815260200160058201805461054490613581565b80601f016020809104026020016040519081016040528092919081815260200182805461057090613581565b80156105bd5780601f10610592576101008083540402835291602001916105bd565b820191906000526020600020905b8154815290600101906020018083116105a057829003601f168201915b505050505081526020016006820154815260200160078201548152602001600882015481526020016009820160009054906101000a900473ffffffffffffffffffffffffffffffffffffffff1673ffffffffffffffffffffffffffffffffffffffff1673ffffffffffffffffffffffffffffffffffffffff168152602001600a8201805461064a90613581565b80601f016020809104026020016040519081016040528092919081815260200182805461067690613581565b80156106c35780601f10610698576101008083540402835291602001916106c3565b820191906000526020600020905b8154815290600101906020018083116106a657829003601f168201915b50505050508152602001600b820180546106dc90613581565b80601f016020809104026020016040519081016040528092919081815260200182805461070890613581565b80156107555780601f1061072a57610100808354040283529160200191610755565b820191906000526020600020905b81548152906001019060200180831161073857829003601f168201915b50505050508152602001600c8201548152602001600d820160009054906101000a900460ff16600181111561078d5761078c612d40565b5b600181111561079f5761079e612d40565b5b81525050815260200190600101906102fa565b50505050905090565b60008034116107ff576040517f08c379a00000000000000000000000000000000000000000000000000000000081526004016107f69061360f565b60405180910390fd5b6007600085815260200190815260200160002060009054906101000a900460ff1661085f576040517f08c379a00000000000000000000000000000000000000000000000000000000081526004016108569061367b565b60405180910390fd5b600584815481106108735761087261369b565b5b90600052602060002090600e02016006015434146108c6576040517f08c379a00000000000000000000000000000000000000000000000000000000081526004016108bd90613716565b60405180910390fd5b6001808111156108d9576108d8612d40565b5b600585815481106108ed576108ec61369b565b5b90600052602060002090600e0201600d0160009054906101000a900460ff16600181111561091e5761091d612d40565b5b0361095e576040517f08c379a000000000000000000000000000000000000000000000000000000000815260040161095590613782565b60405180910390fd5b6000600585815481106109745761097361369b565b5b90600052602060002090600e020160010160009054906101000a900473ffffffffffffffffffffffffffffffffffffffff16905060005b600660008373ffffffffffffffffffffffffffffffffffffffff1673ffffffffffffffffffffffffffffffffffffffff16815260200190815260200160002080549050811015610c4f5785600660008473ffffffffffffffffffffffffffffffffffffffff1673ffffffffffffffffffffffffffffffffffffffff1681526020019081526020016000208281548110610a4757610a4661369b565b5b90600052602060002090600e02016000015403610c425734600660008473ffffffffffffffffffffffffffffffffffffffff1673ffffffffffffffffffffffffffffffffffffffff1681526020019081526020016000208281548110610ab057610aaf61369b565b5b90600052602060002090600e02016007018190555033600660008473ffffffffffffffffffffffffffffffffffffffff1673ffffffffffffffffffffffffffffffffffffffff1681526020019081526020016000208281548110610b1757610b1661369b565b5b90600052602060002090600e020160090160006101000a81548173ffffffffffffffffffffffffffffffffffffffff021916908373ffffffffffffffffffffffffffffffffffffffff16021790555084600660008473ffffffffffffffffffffffffffffffffffffffff1673ffffffffffffffffffffffffffffffffffffffff1681526020019081526020016000208281548110610bb857610bb761369b565b5b90600052602060002090600e0201600b019081610bd5919061394e565b5083600660008473ffffffffffffffffffffffffffffffffffffffff1673ffffffffffffffffffffffffffffffffffffffff1681526020019081526020016000208281548110610c2857610c2761369b565b5b90600052602060002090600e0201600c0181905550610c4f565b80806001019150506109ab565b503360058681548110610c6557610c6461369b565b5b90600052602060002090600e020160090160006101000a81548173ffffffffffffffffffffffffffffffffffffffff021916908373ffffffffffffffffffffffffffffffffffffffff1602179055508360058681548110610cc957610cc861369b565b5b90600052602060002090600e0201600b019081610ce6919061394e565b503460058681548110610cfc57610cfb61369b565b5b90600052602060002090600e0201600701819055508260058681548110610d2657610d2561369b565b5b90600052602060002090600e0201600c018190555060058581548110610d4f57610d4e61369b565b5b90600052602060002090600e0201600860058781548110610d7357610d7261369b565b5b90600052602060002090600e0201600501604051610d919190613aae565b9081526020016040518091039020600082015481600001556001820160009054906101000a900473ffffffffffffffffffffffffffffffffffffffff168160010160006101000a81548173ffffffffffffffffffffffffffffffffffffffff021916908373ffffffffffffffffffffffffffffffffffffffff16021790555060028201816002019081610e249190613adb565b5060038201816003019081610e399190613adb565b5060048201816004019081610e4e9190613adb565b5060058201816005019081610e639190613adb565b506006820154816006015560078201548160070155600882015481600801556009820160009054906101000a900473ffffffffffffffffffffffffffffffffffffffff168160090160006101000a81548173ffffffffffffffffffffffffffffffffffffffff021916908373ffffffffffffffffffffffffffffffffffffffff160217905550600a820181600a019081610efd9190613adb565b50600b820181600b019081610f129190613adb565b50600c82015481600c0155600d820160009054906101000a900460ff1681600d0160006101000a81548160ff02191690836001811115610f5557610f54612d40565b5b0217905550905050600160026001016000828254610f739190613bf2565b9250508190555034600280016000828254610f8e9190613bf2565b92505081905550610f9e856127bd565b3373ffffffffffffffffffffffffffffffffffffffff167faee8e5d3bbb2f71a951b5632cee20f7ac487b9f8ab4f66a236f7694b13af7c6a8642604051610fe6929190613c72565b60405180910390a260019150509392505050565b60076020528060005260406000206000915054906101000a900460ff1681565b60008054906101000a900473ffffffffffffffffffffffffffffffffffffffff1681565b600080885111611083576040517f08c379a000000000000000000000000000000000000000000000000000000000815260040161107a90613cfa565b60405180910390fd5b60008751116110c7576040517f08c379a00000000000000000000000000000000000000000000000000000000081526004016110be90613d66565b60405180910390fd5b600086511161110b576040517f08c379a000000000000000000000000000000000000000000000000000000000815260040161110290613dd2565b60405180910390fd5b600085511161114f576040517f08c379a000000000000000000000000000000000000000000000000000000000815260040161114690613e3e565b60405180910390fd5b6000845111611193576040517f08c379a000000000000000000000000000000000000000000000000000000000815260040161118a90613eaa565b60405180910390fd5b600082116111d6576040517f08c379a00000000000000000000000000000000000000000000000000000000081526004016111cd90613f16565b60405180910390fd5b6111de612b53565b60015481600001818152505033816020019073ffffffffffffffffffffffffffffffffffffffff16908173ffffffffffffffffffffffffffffffffffffffff1681525050888160400181905250878160600181905250868160800181905250848160a00181905250828160c0018181525050838161018001818152505042816101000181815250506000816101a0019060018111156112805761127f612d40565b5b9081600181111561129457611293612d40565b5b815250508581610140018190525060058190806001815401808255809150506001900390600052602060002090600e02016000909190919091506000820151816000015560208201518160010160006101000a81548173ffffffffffffffffffffffffffffffffffffffff021916908373ffffffffffffffffffffffffffffffffffffffff1602179055506040820151816002019081611334919061394e565b50606082015181600301908161134a919061394e565b506080820151816004019081611360919061394e565b5060a0820151816005019081611376919061394e565b5060c0820151816006015560e0820151816007015561010082015181600801556101208201518160090160006101000a81548173ffffffffffffffffffffffffffffffffffffffff021916908373ffffffffffffffffffffffffffffffffffffffff16021790555061014082015181600a0190816113f4919061394e565b5061016082015181600b01908161140b919061394e565b5061018082015181600c01556101a082015181600d0160006101000a81548160ff0219169083600181111561144357611442612d40565b5b02179055505050600160076000600154815260200190815260200160002060006101000a81548160ff021916908315150217905550806008866040516114899190613f67565b90815260200160405180910390206000820151816000015560208201518160010160006101000a81548173ffffffffffffffffffffffffffffffffffffffff021916908373ffffffffffffffffffffffffffffffffffffffff16021790555060408201518160020190816114fd919061394e565b506060820151816003019081611513919061394e565b506080820151816004019081611529919061394e565b5060a082015181600501908161153f919061394e565b5060c0820151816006015560e0820151816007015561010082015181600801556101208201518160090160006101000a81548173ffffffffffffffffffffffffffffffffffffffff021916908373ffffffffffffffffffffffffffffffffffffffff16021790555061014082015181600a0190816115bd919061394e565b5061016082015181600b0190816115d4919061394e565b5061018082015181600c01556101a082015181600d0160006101000a81548160ff0219169083600181111561160c5761160b612d40565b5b0217905550905050600660003373ffffffffffffffffffffffffffffffffffffffff1673ffffffffffffffffffffffffffffffffffffffff1681526020019081526020016000208190806001815401808255809150506001900390600052602060002090600e02016000909190919091506000820151816000015560208201518160010160006101000a81548173ffffffffffffffffffffffffffffffffffffffff021916908373ffffffffffffffffffffffffffffffffffffffff16021790555060408201518160020190816116e3919061394e565b5060608201518160030190816116f9919061394e565b50608082015181600401908161170f919061394e565b5060a0820151816005019081611725919061394e565b5060c0820151816006015560e0820151816007015561010082015181600801556101208201518160090160006101000a81548173ffffffffffffffffffffffffffffffffffffffff021916908373ffffffffffffffffffffffffffffffffffffffff16021790555061014082015181600a0190816117a3919061394e565b5061016082015181600b0190816117ba919061394e565b5061018082015181600c01556101a082015181600d0160006101000a81548160ff021916908360018111156117f2576117f1612d40565b5b0217905550505060016002600001600082825461180f9190613bf2565b925050819055503373ffffffffffffffffffffffffffffffffffffffff167faee8e5d3bbb2f71a951b5632cee20f7ac487b9f8ab4f66a236f7694b13af7c6a6001600081548092919061186190613f7e565b9190505542604051611874929190614012565b60405180910390a26001915050979650505050505050565b611894612b53565b6008826040516118a49190613f67565b9081526020016040518091039020604051806101c0016040529081600082015481526020016001820160009054906101000a900473ffffffffffffffffffffffffffffffffffffffff1673ffffffffffffffffffffffffffffffffffffffff1673ffffffffffffffffffffffffffffffffffffffff16815260200160028201805461192e90613581565b80601f016020809104026020016040519081016040528092919081815260200182805461195a90613581565b80156119a75780601f1061197c576101008083540402835291602001916119a7565b820191906000526020600020905b81548152906001019060200180831161198a57829003601f168201915b505050505081526020016003820180546119c090613581565b80601f01602080910402602001604051908101604052809291908181526020018280546119ec90613581565b8015611a395780601f10611a0e57610100808354040283529160200191611a39565b820191906000526020600020905b815481529060010190602001808311611a1c57829003601f168201915b50505050508152602001600482018054611a5290613581565b80601f0160208091040260200160405190810160405280929190818152602001828054611a7e90613581565b8015611acb5780601f10611aa057610100808354040283529160200191611acb565b820191906000526020600020905b815481529060010190602001808311611aae57829003601f168201915b50505050508152602001600582018054611ae490613581565b80601f0160208091040260200160405190810160405280929190818152602001828054611b1090613581565b8015611b5d5780601f10611b3257610100808354040283529160200191611b5d565b820191906000526020600020905b815481529060010190602001808311611b4057829003601f168201915b505050505081526020016006820154815260200160078201548152602001600882015481526020016009820160009054906101000a900473ffffffffffffffffffffffffffffffffffffffff1673ffffffffffffffffffffffffffffffffffffffff1673ffffffffffffffffffffffffffffffffffffffff168152602001600a82018054611bea90613581565b80601f0160208091040260200160405190810160405280929190818152602001828054611c1690613581565b8015611c635780601f10611c3857610100808354040283529160200191611c63565b820191906000526020600020905b815481529060010190602001808311611c4657829003601f168201915b50505050508152602001600b82018054611c7c90613581565b80601f0160208091040260200160405190810160405280929190818152602001828054611ca890613581565b8015611cf55780601f10611cca57610100808354040283529160200191611cf5565b820191906000526020600020905b815481529060010190602001808311611cd857829003601f168201915b50505050508152602001600c8201548152602001600d820160009054906101000a900460ff166001811115611d2d57611d2c612d40565b5b6001811115611d3f57611d3e612d40565b5b815250509050919050565b611d52612b53565b600073ffffffffffffffffffffffffffffffffffffffff1660058381548110611d7e57611d7d61369b565b5b90600052602060002090600e020160010160009054906101000a900473ffffffffffffffffffffffffffffffffffffffff1673ffffffffffffffffffffffffffffffffffffffff1603611e06576040517f08c379a0000000000000000000000000000000000000000000000000000000008152600401611dfd9061409a565b60405180910390fd5b60058281548110611e1a57611e1961369b565b5b90600052602060002090600e0201604051806101c0016040529081600082015481526020016001820160009054906101000a900473ffffffffffffffffffffffffffffffffffffffff1673ffffffffffffffffffffffffffffffffffffffff1673ffffffffffffffffffffffffffffffffffffffff168152602001600282018054611ea490613581565b80601f0160208091040260200160405190810160405280929190818152602001828054611ed090613581565b8015611f1d5780601f10611ef257610100808354040283529160200191611f1d565b820191906000526020600020905b815481529060010190602001808311611f0057829003601f168201915b50505050508152602001600382018054611f3690613581565b80601f0160208091040260200160405190810160405280929190818152602001828054611f6290613581565b8015611faf5780601f10611f8457610100808354040283529160200191611faf565b820191906000526020600020905b815481529060010190602001808311611f9257829003601f168201915b50505050508152602001600482018054611fc890613581565b80601f0160208091040260200160405190810160405280929190818152602001828054611ff490613581565b80156120415780601f1061201657610100808354040283529160200191612041565b820191906000526020600020905b81548152906001019060200180831161202457829003601f168201915b5050505050815260200160058201805461205a90613581565b80601f016020809104026020016040519081016040528092919081815260200182805461208690613581565b80156120d35780601f106120a8576101008083540402835291602001916120d3565b820191906000526020600020905b8154815290600101906020018083116120b657829003601f168201915b505050505081526020016006820154815260200160078201548152602001600882015481526020016009820160009054906101000a900473ffffffffffffffffffffffffffffffffffffffff1673ffffffffffffffffffffffffffffffffffffffff1673ffffffffffffffffffffffffffffffffffffffff168152602001600a8201805461216090613581565b80601f016020809104026020016040519081016040528092919081815260200182805461218c90613581565b80156121d95780601f106121ae576101008083540402835291602001916121d9565b820191906000526020600020905b8154815290600101906020018083116121bc57829003601f168201915b50505050508152602001600b820180546121f290613581565b80601f016020809104026020016040519081016040528092919081815260200182805461221e90613581565b801561226b5780601f106122405761010080835404028352916020019161226b565b820191906000526020600020905b81548152906001019060200180831161224e57829003601f168201915b50505050508152602001600c8201548152602001600d820160009054906101000a900460ff1660018111156122a3576122a2612d40565b5b60018111156122b5576122b4612d40565b5b815250509050919050565b60028060000154908060010154908060020154905083565b60606005805480602002602001604051908101604052809291908181526020016000905b828210156127b457838290600052602060002090600e0201604051806101c0016040529081600082015481526020016001820160009054906101000a900473ffffffffffffffffffffffffffffffffffffffff1673ffffffffffffffffffffffffffffffffffffffff1673ffffffffffffffffffffffffffffffffffffffff16815260200160028201805461239090613581565b80601f01602080910402602001604051908101604052809291908181526020018280546123bc90613581565b80156124095780601f106123de57610100808354040283529160200191612409565b820191906000526020600020905b8154815290600101906020018083116123ec57829003601f168201915b5050505050815260200160038201805461242290613581565b80601f016020809104026020016040519081016040528092919081815260200182805461244e90613581565b801561249b5780601f106124705761010080835404028352916020019161249b565b820191906000526020600020905b81548152906001019060200180831161247e57829003601f168201915b505050505081526020016004820180546124b490613581565b80601f01602080910402602001604051908101604052809291908181526020018280546124e090613581565b801561252d5780601f106125025761010080835404028352916020019161252d565b820191906000526020600020905b81548152906001019060200180831161251057829003601f168201915b5050505050815260200160058201805461254690613581565b80601f016020809104026020016040519081016040528092919081815260200182805461257290613581565b80156125bf5780601f10612594576101008083540402835291602001916125bf565b820191906000526020600020905b8154815290600101906020018083116125a257829003601f168201915b505050505081526020016006820154815260200160078201548152602001600882015481526020016009820160009054906101000a900473ffffffffffffffffffffffffffffffffffffffff1673ffffffffffffffffffffffffffffffffffffffff1673ffffffffffffffffffffffffffffffffffffffff168152602001600a8201805461264c90613581565b80601f016020809104026020016040519081016040528092919081815260200182805461267890613581565b80156126c55780601f1061269a576101008083540402835291602001916126c5565b820191906000526020600020905b8154815290600101906020018083116126a857829003601f168201915b50505050508152602001600b820180546126de90613581565b80601f016020809104026020016040519081016040528092919081815260200182805461270a90613581565b80156127575780601f1061272c57610100808354040283529160200191612757565b820191906000526020600020905b81548152906001019060200180831161273a57829003601f168201915b50505050508152602001600c8201548152602001600d820160009054906101000a900460ff16600181111561278f5761278e612d40565b5b60018111156127a1576127a0612d40565b5b81525050815260200190600101906122fc565b50505050905090565b6000600582815481106127d3576127d261369b565b5b90600052602060002090600e02016007015490506000600583815481106127fd576127fc61369b565b5b90600052602060002090600e020160070181905550612861600583815481106128295761282861369b565b5b90600052602060002090600e020160010160009054906101000a900473ffffffffffffffffffffffffffffffffffffffff1682612aa2565b6001600583815481106128775761287661369b565b5b90600052602060002090600e0201600d0160006101000a81548160ff021916908360018111156128aa576128a9612d40565b5b02179055506000600583815481106128c5576128c461369b565b5b90600052602060002090600e020160010160009054906101000a900473ffffffffffffffffffffffffffffffffffffffff16905060005b600660008373ffffffffffffffffffffffffffffffffffffffff1673ffffffffffffffffffffffffffffffffffffffff16815260200190815260200160002080549050811015612a4c5783600660008473ffffffffffffffffffffffffffffffffffffffff1673ffffffffffffffffffffffffffffffffffffffff16815260200190815260200160002082815481106129985761299761369b565b5b90600052602060002090600e02016000015403612a3f576001600660008473ffffffffffffffffffffffffffffffffffffffff1673ffffffffffffffffffffffffffffffffffffffff1681526020019081526020016000208281548110612a0257612a0161369b565b5b90600052602060002090600e0201600d0160006101000a81548160ff02191690836001811115612a3557612a34612d40565b5b0217905550612a4c565b80806001019150506128fc565b503373ffffffffffffffffffffffffffffffffffffffff167faee8e5d3bbb2f71a951b5632cee20f7ac487b9f8ab4f66a236f7694b13af7c6a8442604051612a95929190614106565b60405180910390a2505050565b60008273ffffffffffffffffffffffffffffffffffffffff1682604051612ac890614173565b60006040518083038185875af1925050503d8060008114612b05576040519150601f19603f3d011682016040523d82523d6000602084013e612b0a565b606091505b5050905080612b4e576040517f08c379a0000000000000000000000000000000000000000000000000000000008152600401612b45906141d4565b60405180910390fd5b505050565b604051806101c0016040528060008152602001600073ffffffffffffffffffffffffffffffffffffffff16815260200160608152602001606081526020016060815260200160608152602001600081526020016000815260200160008152602001600073ffffffffffffffffffffffffffffffffffffffff16815260200160608152602001606081526020016000815260200160006001811115612bfa57612bf9612d40565b5b81525090565b6000819050919050565b612c1381612c00565b82525050565b6000602082019050612c2e6000830184612c0a565b92915050565b600081519050919050565b600082825260208201905092915050565b6000819050602082019050919050565b612c6981612c00565b82525050565b600073ffffffffffffffffffffffffffffffffffffffff82169050919050565b6000612c9a82612c6f565b9050919050565b612caa81612c8f565b82525050565b600081519050919050565b600082825260208201905092915050565b60005b83811015612cea578082015181840152602081019050612ccf565b60008484015250505050565b6000601f19601f8301169050919050565b6000612d1282612cb0565b612d1c8185612cbb565b9350612d2c818560208601612ccc565b612d3581612cf6565b840191505092915050565b7f4e487b7100000000000000000000000000000000000000000000000000000000600052602160045260246000fd5b60028110612d8057612d7f612d40565b5b50565b6000819050612d9182612d6f565b919050565b6000612da182612d83565b9050919050565b612db181612d96565b82525050565b60006101c083016000830151612dd06000860182612c60565b506020830151612de36020860182612ca1565b5060408301518482036040860152612dfb8282612d07565b91505060608301518482036060860152612e158282612d07565b91505060808301518482036080860152612e2f8282612d07565b91505060a083015184820360a0860152612e498282612d07565b91505060c0830151612e5e60c0860182612c60565b5060e0830151612e7160e0860182612c60565b50610100830151612e86610100860182612c60565b50610120830151612e9b610120860182612ca1565b50610140830151848203610140860152612eb58282612d07565b915050610160830151848203610160860152612ed18282612d07565b915050610180830151612ee8610180860182612c60565b506101a0830151612efd6101a0860182612da8565b508091505092915050565b6000612f148383612db7565b905092915050565b6000602082019050919050565b6000612f3482612c34565b612f3e8185612c3f565b935083602082028501612f5085612c50565b8060005b85811015612f8c5784840389528151612f6d8582612f08565b9450612f7883612f1c565b925060208a01995050600181019050612f54565b50829750879550505050505092915050565b60006020820190508181036000830152612fb88184612f29565b905092915050565b6000604051905090565b600080fd5b600080fd5b612fdd81612c00565b8114612fe857600080fd5b50565b600081359050612ffa81612fd4565b92915050565b600080fd5b600080fd5b7f4e487b7100000000000000000000000000000000000000000000000000000000600052604160045260246000fd5b61304282612cf6565b810181811067ffffffffffffffff821117156130615761306061300a565b5b80604052505050565b6000613074612fc0565b90506130808282613039565b919050565b600067ffffffffffffffff8211156130a05761309f61300a565b5b6130a982612cf6565b9050602081019050919050565b82818337600083830152505050565b60006130d86130d384613085565b61306a565b9050828152602081018484840111156130f4576130f3613005565b5b6130ff8482856130b6565b509392505050565b600082601f83011261311c5761311b613000565b5b813561312c8482602086016130c5565b91505092915050565b60008060006060848603121561314e5761314d612fca565b5b600061315c86828701612feb565b935050602084013567ffffffffffffffff81111561317d5761317c612fcf565b5b61318986828701613107565b925050604061319a86828701612feb565b9150509250925092565b60008115159050919050565b6131b9816131a4565b82525050565b60006020820190506131d460008301846131b0565b92915050565b6000602082840312156131f0576131ef612fca565b5b60006131fe84828501612feb565b91505092915050565b61321081612c8f565b82525050565b600060208201905061322b6000830184613207565b92915050565b600080600080600080600060e0888a0312156132505761324f612fca565b5b600088013567ffffffffffffffff81111561326e5761326d612fcf565b5b61327a8a828b01613107565b975050602088013567ffffffffffffffff81111561329b5761329a612fcf565b5b6132a78a828b01613107565b965050604088013567ffffffffffffffff8111156132c8576132c7612fcf565b5b6132d48a828b01613107565b955050606088013567ffffffffffffffff8111156132f5576132f4612fcf565b5b6133018a828b01613107565b945050608088013567ffffffffffffffff81111561332257613321612fcf565b5b61332e8a828b01613107565b93505060a061333f8a828b01612feb565b92505060c06133508a828b01612feb565b91505092959891949750929550565b60006020828403121561337557613374612fca565b5b600082013567ffffffffffffffff81111561339357613392612fcf565b5b61339f84828501613107565b91505092915050565b60006101c0830160008301516133c16000860182612c60565b5060208301516133d46020860182612ca1565b50604083015184820360408601526133ec8282612d07565b915050606083015184820360608601526134068282612d07565b915050608083015184820360808601526134208282612d07565b91505060a083015184820360a086015261343a8282612d07565b91505060c083015161344f60c0860182612c60565b5060e083015161346260e0860182612c60565b50610100830151613477610100860182612c60565b5061012083015161348c610120860182612ca1565b506101408301518482036101408601526134a68282612d07565b9150506101608301518482036101608601526134c28282612d07565b9150506101808301516134d9610180860182612c60565b506101a08301516134ee6101a0860182612da8565b508091505092915050565b6000602082019050818103600083015261351381846133a8565b905092915050565b60006060820190506135306000830186612c0a565b61353d6020830185612c0a565b61354a6040830184612c0a565b949350505050565b7f4e487b7100000000000000000000000000000000000000000000000000000000600052602260045260246000fd5b6000600282049050600182168061359957607f821691505b6020821081036135ac576135ab613552565b5b50919050565b600082825260208201905092915050565b7f4574686572206d7573742062652067726561746572207468616e207a65726f00600082015250565b60006135f9601f836135b2565b9150613604826135c3565b602082019050919050565b60006020820190508181036000830152613628816135ec565b9050919050565b7f50726f6a656374206e6f7420666f756e64000000000000000000000000000000600082015250565b60006136656011836135b2565b91506136708261362f565b602082019050919050565b6000602082019050818103600083015261369481613658565b9050919050565b7f4e487b7100000000000000000000000000000000000000000000000000000000600052603260045260246000fd5b7f4574686572206d75737420626520657175616c207468616e20636f7374000000600082015250565b6000613700601d836135b2565b915061370b826136ca565b602082019050919050565b6000602082019050818103600083015261372f816136f3565b9050919050565b7f50726f6a6563742063616e6e6f74206265206261636b65640000000000000000600082015250565b600061376c6018836135b2565b915061377782613736565b602082019050919050565b6000602082019050818103600083015261379b8161375f565b9050919050565b60008190508160005260206000209050919050565b60006020601f8301049050919050565b600082821b905092915050565b6000600883026138047fffffffffffffffffffffffffffffffffffffffffffffffffffffffffffffffff826137c7565b61380e86836137c7565b95508019841693508086168417925050509392505050565b6000819050919050565b600061384b61384661384184612c00565b613826565b612c00565b9050919050565b6000819050919050565b61386583613830565b61387961387182613852565b8484546137d4565b825550505050565b600090565b61388e613881565b61389981848461385c565b505050565b5b818110156138bd576138b2600082613886565b60018101905061389f565b5050565b601f821115613902576138d3816137a2565b6138dc846137b7565b810160208510156138eb578190505b6138ff6138f7856137b7565b83018261389e565b50505b505050565b600082821c905092915050565b600061392560001984600802613907565b1980831691505092915050565b600061393e8383613914565b9150826002028217905092915050565b61395782612cb0565b67ffffffffffffffff8111156139705761396f61300a565b5b61397a8254613581565b6139858282856138c1565b600060209050601f8311600181146139b857600084156139a6578287015190505b6139b08582613932565b865550613a18565b601f1984166139c6866137a2565b60005b828110156139ee578489015182556001820191506020850194506020810190506139c9565b86831015613a0b5784890151613a07601f891682613914565b8355505b6001600288020188555050505b505050505050565b600081905092915050565b60008154613a3881613581565b613a428186613a20565b94506001821660008114613a5d5760018114613a7257613aa5565b60ff1983168652811515820286019350613aa5565b613a7b856137a2565b60005b83811015613a9d57815481890152600182019150602081019050613a7e565b838801955050505b50505092915050565b6000613aba8284613a2b565b915081905092915050565b600081549050613ad481613581565b9050919050565b818103613ae9575050613bc1565b613af282613ac5565b67ffffffffffffffff811115613b0b57613b0a61300a565b5b613b158254613581565b613b208282856138c1565b6000601f831160018114613b4f5760008415613b3d578287015490505b613b478582613932565b865550613bba565b601f198416613b5d876137a2565b9650613b68866137a2565b60005b82811015613b9057848901548255600182019150600185019450602081019050613b6b565b86831015613bad5784890154613ba9601f891682613914565b8355505b6001600288020188555050505b5050505050505b565b7f4e487b7100000000000000000000000000000000000000000000000000000000600052601160045260246000fd5b6000613bfd82612c00565b9150613c0883612c00565b9250828201905080821115613c2057613c1f613bc3565b5b92915050565b7f50524f4a454354204241434b4544000000000000000000000000000000000000600082015250565b6000613c5c600e836135b2565b9150613c6782613c26565b602082019050919050565b6000606082019050613c876000830185612c0a565b8181036020830152613c9881613c4f565b9050613ca76040830184612c0a565b9392505050565b7f5469746c652063616e6e6f7420626520656d7074790000000000000000000000600082015250565b6000613ce46015836135b2565b9150613cef82613cae565b602082019050919050565b60006020820190508181036000830152613d1381613cd7565b9050919050565b7f4465736372697074696f6e2063616e6e6f7420626520656d7074790000000000600082015250565b6000613d50601b836135b2565b9150613d5b82613d1a565b602082019050919050565b60006020820190508181036000830152613d7f81613d43565b9050919050565b7f43617465676f72792063616e6e6f7420626520656d7074790000000000000000600082015250565b6000613dbc6018836135b2565b9150613dc782613d86565b602082019050919050565b60006020820190508181036000830152613deb81613daf565b9050919050565b7f4f776e6572204e616d652063616e6e6f7420626520656d707479000000000000600082015250565b6000613e28601a836135b2565b9150613e3382613df2565b602082019050919050565b60006020820190508181036000830152613e5781613e1b565b9050919050565b7f536c75672063616e6e6f7420626520656d707479000000000000000000000000600082015250565b6000613e946014836135b2565b9150613e9f82613e5e565b602082019050919050565b60006020820190508181036000830152613ec381613e87565b9050919050565b7f436f73742063616e6e6f74206265207a65726f00000000000000000000000000600082015250565b6000613f006013836135b2565b9150613f0b82613eca565b602082019050919050565b60006020820190508181036000830152613f2f81613ef3565b9050919050565b6000613f4182612cb0565b613f4b8185613a20565b9350613f5b818560208601612ccc565b80840191505092915050565b6000613f738284613f36565b915081905092915050565b6000613f8982612c00565b91507fffffffffffffffffffffffffffffffffffffffffffffffffffffffffffffffff8203613fbb57613fba613bc3565b5b600182019050919050565b7f50524f4a45435420435245415445440000000000000000000000000000000000600082015250565b6000613ffc600f836135b2565b915061400782613fc6565b602082019050919050565b60006060820190506140276000830185612c0a565b818103602083015261403881613fef565b90506140476040830184612c0a565b9392505050565b7f496e76616c69642070726f6a6563742049440000000000000000000000000000600082015250565b60006140846012836135b2565b915061408f8261404e565b602082019050919050565b600060208201905081810360008301526140b381614077565b9050919050565b7f50524f4a4543542050414944204f555400000000000000000000000000000000600082015250565b60006140f06010836135b2565b91506140fb826140ba565b602082019050919050565b600060608201905061411b6000830185612c0a565b818103602083015261412c816140e3565b905061413b6040830184612c0a565b9392505050565b600081905092915050565b50565b600061415d600083614142565b91506141688261414d565b600082019050919050565b600061417e82614150565b9150819050919050565b7f5061796d656e74206661696c6564000000000000000000000000000000000000600082015250565b60006141be600e836135b2565b91506141c982614188565b602082019050919050565b600060208201905081810360008301526141ed816141b1565b905091905056fea26469706673582212202014f4a372db0e4389b2fbd5eb274907423412fb61051eb12e139c2c4438434564736f6c634300081c0033",
  "linkReferences": {},
  "deployedLinkReferences": {}
}